:1000000012C02CC02BC02AC029C029C027C026C0BE
:1000100025C024C023C0FFFF007F00FF007F00FF3A
:1000200000FFFF7FFF0011271FBFCFE5D0E0DEBF3D
:10003000CDBF20E0A0E4B0E0EEE2F2E402C03191F6
:100040003D93A434B207D9F720E0A4E4B0E001C0A6
:100050001D93AA34B207E1F754D0E7C0D1CF1F9364
:100060000F930FB70F9310E04F935F936F937F93AE
:10007000EF93FF93E0E4F0E05081E9E4F0E04081A9
:10008000541710F4109801C0109AE0E4F0E0EF5F0C
:10009000FF4F5081E9E4F0E04081541710F41198CB
:1000A00001C0119AE0E4F0E0EE5FFF4F5081E9E417
:1000B000F0E04081541710F4129801C0129AE9E45C
:1000C000F0E040814F5F4083E5E4F0E041915191E1
:1000D00061917081E350F0404F5F5F4F6F4F7F4FF2
:1000E0004193519361937083E350F040FF91EF91FE
:1000F0007F916F915F914F910F910FBF0F911F9162
:10010000189548ED4CBF16BF1EBD4AE04DBD47E2F5
:1001100050E057BD46BD4BB542604BBD789441B1F0
:10012000476041B9C4E4D0E0E881F0E0E05EFF4B15
:10013000E081A0E4B0E0EC93E881F0E0E55EFF4B05
:10014000E081AF5FBF4FEC93A150B040E881F0E099
:10015000EA5EFF4BE081AE5FBF4FEC93C5E4D0E0B9
:1001600024E430E04991599169917881C350D0409D
:100170005F7766277727452B462B472B99F7A22FCA
:10018000B32F8C9190E08F5F9F4F65E070E024D09B
:10019000E22FF32F8083E081F0E0E05EFF4BE0810F
:1001A000A0E4B0E0EC93A22FB32FEC91F0E0E55E79
:1001B000FF4BE081A0E4B0E0AF5FBF4FEC93A22F14
:1001C000B32FEC91F0E0EA5EFF4BE081A0E4B0E0F9
:1001D000AE5FBF4FEC93C6CF97FB072F16F4009589
:1001E00006D077FD08D00BD007FD05D03EF49095E2
:1001F00081959F4F0895709561957F4F0895AA1B33
:10020000BB1B51E107C0AA1FBB1FA617B70710F001
:10021000A61BB70B881F991F5A95A9F78095909533
:0E022000682F792F8A2F9B2F0895F894FFCF17
:04022E00FFFFFF00CF
:00000001FF
